{
  "address": "0x4d89fb86aB944A7a00c1D659E40423276826C993",
  "abi": [
    {
      "inputs": [
        {
          "internalType": "address",
          "name": "_luckbox",
          "type": "address"
        },
        {
          "internalType": "address",
          "name": "_treasury",
          "type": "address"
        }
      ],
      "stateMutability": "nonpayable",
      "type": "constructor"
    },
    {
      "anonymous": false,
      "inputs": [
        {
          "indexed": true,
          "internalType": "address",
          "name": "owner",
          "type": "address"
        },
        {
          "indexed": false,
          "internalType": "uint256",
          "name": "amount",
          "type": "uint256"
        }
      ],
      "name": "Deposit",
      "type": "event"
    },
    {
      "anonymous": false,
      "inputs": [
        {
          "indexed": true,
          "internalType": "address",
          "name": "previousOwner",
          "type": "address"
        },
        {
          "indexed": true,
          "internalType": "address",
          "name": "newOwner",
          "type": "address"
        }
      ],
      "name": "OwnershipTransferred",
      "type": "event"
    },
    {
      "anonymous": false,
      "inputs": [
        {
          "indexed": true,
          "internalType": "address",
          "name": "nftAddress",
          "type": "address"
        },
        {
          "indexed": false,
          "internalType": "bool",
          "name": "isAllowed",
          "type": "bool"
        }
      ],
      "name": "SetNFTAllowance",
      "type": "event"
    },
    {
      "anonymous": false,
      "inputs": [
        {
          "indexed": true,
          "internalType": "address",
          "name": "owner",
          "type": "address"
        },
        {
          "indexed": false,
          "internalType": "address",
          "name": "nftAddress",
          "type": "address"
        },
        {
          "indexed": false,
          "internalType": "uint256",
          "name": "tokenId",
          "type": "uint256"
        },
        {
          "indexed": false,
          "internalType": "uint256",
          "name": "amount",
          "type": "uint256"
        },
        {
          "indexed": false,
          "internalType": "bool",
          "name": "is1155",
          "type": "bool"
        }
      ],
      "name": "Trash",
      "type": "event"
    },
    {
      "inputs": [],
      "name": "deposit",
      "outputs": [],
      "stateMutability": "payable",
      "type": "function"
    },
    {
      "inputs": [
        {
          "internalType": "uint256",
          "name": "",
          "type": "uint256"
        }
      ],
      "name": "idToResult",
      "outputs": [
        {
          "internalType": "uint256",
          "name": "id",
          "type": "uint256"
        },
        {
          "internalType": "address",
          "name": "owner",
          "type": "address"
        },
        {
          "internalType": "address",
          "name": "nftAddress",
          "type": "address"
        },
        {
          "internalType": "uint256",
          "name": "tokenId",
          "type": "uint256"
        },
        {
          "internalType": "bool",
          "name": "is1155",
          "type": "bool"
        }
      ],
      "stateMutability": "view",
      "type": "function"
    },
    {
      "inputs": [],
      "name": "luckbox",
      "outputs": [
        {
          "internalType": "address",
          "name": "",
          "type": "address"
        }
      ],
      "stateMutability": "view",
      "type": "function"
    },
    {
      "inputs": [
        {
          "internalType": "address",
          "name": "",
          "type": "address"
        }
      ],
      "name": "nftAllowance",
      "outputs": [
        {
          "internalType": "bool",
          "name": "",
          "type": "bool"
        }
      ],
      "stateMutability": "view",
      "type": "function"
    },
    {
      "inputs": [
        {
          "internalType": "address",
          "name": "",
          "type": "address"
        },
        {
          "internalType": "address",
          "name": "",
          "type": "address"
        },
        {
          "internalType": "uint256[]",
          "name": "",
          "type": "uint256[]"
        },
        {
          "internalType": "uint256[]",
          "name": "",
          "type": "uint256[]"
        },
        {
          "internalType": "bytes",
          "name": "",
          "type": "bytes"
        }
      ],
      "name": "onERC1155BatchReceived",
      "outputs": [
        {
          "internalType": "bytes4",
          "name": "",
          "type": "bytes4"
        }
      ],
      "stateMutability": "nonpayable",
      "type": "function"
    },
    {
      "inputs": [
        {
          "internalType": "address",
          "name": "",
          "type": "address"
        },
        {
          "internalType": "address",
          "name": "",
          "type": "address"
        },
        {
          "internalType": "uint256",
          "name": "",
          "type": "uint256"
        },
        {
          "internalType": "uint256",
          "name": "",
          "type": "uint256"
        },
        {
          "internalType": "bytes",
          "name": "",
          "type": "bytes"
        }
      ],
      "name": "onERC1155Received",
      "outputs": [
        {
          "internalType": "bytes4",
          "name": "",
          "type": "bytes4"
        }
      ],
      "stateMutability": "nonpayable",
      "type": "function"
    },
    {
      "inputs": [
        {
          "internalType": "address",
          "name": "",
          "type": "address"
        },
        {
          "internalType": "address",
          "name": "",
          "type": "address"
        },
        {
          "internalType": "uint256",
          "name": "",
          "type": "uint256"
        },
        {
          "internalType": "bytes",
          "name": "",
          "type": "bytes"
        }
      ],
      "name": "onERC721Received",
      "outputs": [
        {
          "internalType": "bytes4",
          "name": "",
          "type": "bytes4"
        }
      ],
      "stateMutability": "nonpayable",
      "type": "function"
    },
    {
      "inputs": [],
      "name": "owner",
      "outputs": [
        {
          "internalType": "address",
          "name": "",
          "type": "address"
        }
      ],
      "stateMutability": "view",
      "type": "function"
    },
    {
      "inputs": [],
      "name": "renounceOwnership",
      "outputs": [],
      "stateMutability": "nonpayable",
      "type": "function"
    },
    {
      "inputs": [
        {
          "internalType": "address",
          "name": "_nftAddress",
          "type": "address"
        },
        {
          "internalType": "bool",
          "name": "_isAllowed",
          "type": "bool"
        }
      ],
      "name": "setNFTAddressAllowance",
      "outputs": [],
      "stateMutability": "nonpayable",
      "type": "function"
    },
    {
      "inputs": [
        {
          "internalType": "bytes4",
          "name": "interfaceId",
          "type": "bytes4"
        }
      ],
      "name": "supportsInterface",
      "outputs": [
        {
          "internalType": "bool",
          "name": "",
          "type": "bool"
        }
      ],
      "stateMutability": "view",
      "type": "function"
    },
    {
      "inputs": [
        {
          "internalType": "address",
          "name": "newOwner",
          "type": "address"
        }
      ],
      "name": "transferOwnership",
      "outputs": [],
      "stateMutability": "nonpayable",
      "type": "function"
    },
    {
      "inputs": [
        {
          "internalType": "address",
          "name": "_nftAddress",
          "type": "address"
        },
        {
          "internalType": "uint256",
          "name": "_tokenId",
          "type": "uint256"
        },
        {
          "internalType": "bool",
          "name": "_is1155",
          "type": "bool"
        }
      ],
      "name": "trash",
      "outputs": [],
      "stateMutability": "nonpayable",
      "type": "function"
    },
    {
      "inputs": [],
      "name": "trashId",
      "outputs": [
        {
          "internalType": "uint256",
          "name": "",
          "type": "uint256"
        }
      ],
      "stateMutability": "view",
      "type": "function"
    },
    {
      "inputs": [],
      "name": "treasury",
      "outputs": [
        {
          "internalType": "address",
          "name": "",
          "type": "address"
        }
      ],
      "stateMutability": "view",
      "type": "function"
    }
  ],
  "transactionHash": "0xeba32017532fa6fc1ae3b4dc329af4e8f994ed659ea69a4fbeca886bff305247",
  "args": [
    "0x9C01E0B8227eb869B479c12665b40Cc864C787a8",
    "0x480cFCFD4059aa2e22d5fEFC42BaD2b5EfE96ECf"
  ],
  "numDeployments": 2,
  "solcInputHash": "1a58f4e56cf5aa68aaa693e3c4d5445d",
  "bytecode": "0x608060405234801561001057600080fd5b506040516200178e3803806200178e8339818101604052604081101561003557600080fd5b5080516020909101516001600090815561004d6100ec565b600180546001600160a01b0319166001600160a01b038316908117909155604051919250906000907f8be0079c531659141344cd1fd0a4f28419497f9722a3daafe3b4186f6b6457e0908290a3506100ab6301ffc9a760e01b6100f0565b6100bb630271189760e51b6100f0565b600380546001600160a01b039384166001600160a01b03199182161790915560058054929093169116179055610174565b3390565b6001600160e01b0319808216141561014f576040805162461bcd60e51b815260206004820152601c60248201527f4552433136353a20696e76616c696420696e7465726661636520696400000000604482015290519081900360640190fd5b6001600160e01b0319166000908152600260205260409020805460ff19166001179055565b61160a80620001846000396000f3fe6080604052600436106100e85760003560e01c80638da5cb5b1161008a578063db237b8411610059578063db237b841461054c578063e0c582ca14610561578063f23a6e61146105a2578063f2fde38b14610678576100e8565b80638da5cb5b1461033a578063949834901461034f578063bc197c8114610376578063d0e30db014610544576100e8565b806361d027b3116100c657806361d027b314610284578063715018a6146102b55780637c356566146102cc5780637d2eac26146102ff576100e8565b806301ffc9a7146100ed578063150b7a021461013557806339c58dd214610223575b600080fd5b3480156100f957600080fd5b506101216004803603602081101561011057600080fd5b50356001600160e01b0319166106ab565b604080519115158252519081900360200190f35b34801561014157600080fd5b506102066004803603608081101561015857600080fd5b6001600160a01b03823581169260208101359091169160408201359190810190608081016060820135600160201b81111561019257600080fd5b8201836020820111156101a457600080fd5b803590602001918460018302840111600160201b831117156101c557600080fd5b91908080601f0160208091040260200160405190810160405280939291908181526020018383808284376000920191909152509295506106ca945050505050565b604080516001600160e01b03199092168252519081900360200190f35b34801561022f57600080fd5b5061024d6004803603602081101561024657600080fd5b50356106da565b604080519586526001600160a01b039485166020870152929093168483015260608401529015156080830152519081900360a00190f35b34801561029057600080fd5b50610299610718565b604080516001600160a01b039092168252519081900360200190f35b3480156102c157600080fd5b506102ca610727565b005b3480156102d857600080fd5b50610121600480360360208110156102ef57600080fd5b50356001600160a01b03166107d3565b34801561030b57600080fd5b506102ca6004803603604081101561032257600080fd5b506001600160a01b03813516906020013515156107e8565b34801561034657600080fd5b506102996108ef565b34801561035b57600080fd5b506103646108fe565b60408051918252519081900360200190f35b34801561038257600080fd5b50610206600480360360a081101561039957600080fd5b6001600160a01b038235811692602081013590911691810190606081016040820135600160201b8111156103cc57600080fd5b8201836020820111156103de57600080fd5b803590602001918460208302840111600160201b831117156103ff57600080fd5b9190808060200260200160405190810160405280939291908181526020018383602002808284376000920191909152509295949360208101935035915050600160201b81111561044e57600080fd5b82018360208201111561046057600080fd5b803590602001918460208302840111600160201b8311171561048157600080fd5b9190808060200260200160405190810160405280939291908181526020018383602002808284376000920191909152509295949360208101935035915050600160201b8111156104d057600080fd5b8201836020820111156104e257600080fd5b803590602001918460018302840111600160201b8311171561050357600080fd5b91908080601f016020809104026020016040519081016040528093929190818152602001838380828437600092019190915250929550610904945050505050565b6102ca610915565b34801561055857600080fd5b506102996109af565b34801561056d57600080fd5b506102ca6004803603606081101561058457600080fd5b506001600160a01b03813516906020810135906040013515156109be565b3480156105ae57600080fd5b50610206600480360360a08110156105c557600080fd5b6001600160a01b03823581169260208101359091169160408201359160608101359181019060a081016080820135600160201b81111561060457600080fd5b82018360208201111561061657600080fd5b803590602001918460018302840111600160201b8311171561063757600080fd5b91908080601f016020809104026020016040519081016040528093929190818152602001838380828437600092019190915250929550610db5945050505050565b34801561068457600080fd5b506102ca6004803603602081101561069b57600080fd5b50356001600160a01b0316610dc6565b6001600160e01b03191660009081526002602052604090205460ff1690565b630a85bd0160e11b949350505050565b6006602052600090815260409020805460018201546002830154600384015460049094015492936001600160a01b0392831693929091169160ff1685565b6005546001600160a01b031681565b61072f610ec9565b6001600160a01b03166107406108ef565b6001600160a01b031614610789576040805162461bcd60e51b815260206004820181905260248201526000805160206115b5833981519152604482015290519081900360640190fd5b6001546040516000916001600160a01b0316907f8be0079c531659141344cd1fd0a4f28419497f9722a3daafe3b4186f6b6457e0908390a3600180546001600160a01b0319169055565b60076020526000908152604090205460ff1681565b6107f0610ec9565b6001600160a01b03166108016108ef565b6001600160a01b03161461084a576040805162461bcd60e51b815260206004820181905260248201526000805160206115b5833981519152604482015290519081900360640190fd5b6001600160a01b03821661088f5760405162461bcd60e51b81526004018080602001828103825260228152602001806115936022913960400191505060405180910390fd5b6001600160a01b038216600081815260076020908152604091829020805460ff1916851515908117909155825190815291517fb10f6c668afbc22519bbd150b3aa14f33e606b04e72089affaffa20c420e9c539281900390910190a25050565b6001546001600160a01b031690565b60045481565b63bc197c8160e01b95945050505050565b61091d610ec9565b6001600160a01b031661092e6108ef565b6001600160a01b031614610977576040805162461bcd60e51b815260206004820181905260248201526000805160206115b5833981519152604482015290519081900360640190fd5b60408051348152905133917fe1fffcc4923d04b559f4d29a8bfc6cda04eb5b0d3c460751c2402c5c5cc9109c919081900360200190a2565b6003546001600160a01b031681565b6001600160a01b03831660009081526007602052604090205460ff16610a2b576040805162461bcd60e51b815260206004820152601d60248201527f5f6e667441646472657373206e6f7420616c6c6f77616e636520796574000000604482015290519081900360640190fd5b8015610acd5760055460408051637921219560e11b8152336004808301919091526001600160a01b039384166024830152604482018690526001606483015260a0608483015260a4820152630307830360e41b60c482015290519185169163f242432a9160e48082019260009290919082900301818387803b158015610ab057600080fd5b505af1158015610ac4573d6000803e3d6000fd5b50505050610b41565b60055460408051632142170760e11b81523360048201526001600160a01b039283166024820152604481018590529051918516916342842e0e9160648082019260009290919082900301818387803b158015610b2857600080fd5b505af1158015610b3c573d6000803e3d6000fd5b505050505b60035460408051630904d8fb60e11b815290516000926001600160a01b031691631209b1f6916004808301926020929190829003018186803b158015610b8657600080fd5b505afa158015610b9a573d6000803e3d6000fd5b505050506040513d6020811015610bb057600080fd5b5051905047811115610bfd576040805162461bcd60e51b8152602060048201526011602482015270139bdd08195b9bdd59da081d1a58dad95d607a1b604482015290519081900360640190fd5b610c05610ecd565b600360009054906101000a90046001600160a01b03166001600160a01b0316630eecae21826040518263ffffffff1660e01b81526004016000604051808303818588803b158015610c5557600080fd5b505af1158015610c69573d6000803e3d6000fd5b5050505050610c7661117d565b6040805160a081018252600480548083523360208085018281526009546001600160a01b03908116878901908152600a546060808a01918252600b5460ff90811615156080808d0191825260009a8b52600689528d8b209c518d55965160018d810180549289166001600160a01b0319938416179055955160028e81018054928a16929093169190911790915593516003808e019190915590519b8b0180549c151560ff19909d169c909c17909b5589548952978b9020918201549982015491909801548a5199909316895293880193909352868801929092529216151592840192909252925190927fe2a3f2489ef5d2de602f179e12fdb392d98a713b97a231c60f673450a06d34ab928290030190a250506004805460010190555050600980546001600160a01b03191690556000600a55600b805460ff19169055565b63f23a6e6160e01b95945050505050565b610dce610ec9565b6001600160a01b0316610ddf6108ef565b6001600160a01b031614610e28576040805162461bcd60e51b815260206004820181905260248201526000805160206115b5833981519152604482015290519081900360640190fd5b6001600160a01b038116610e6d5760405162461bcd60e51b815260040180806020018281038252602681526020018061156d6026913960400191505060405180910390fd5b6001546040516001600160a01b038084169216907f8be0079c531659141344cd1fd0a4f28419497f9722a3daafe3b4186f6b6457e090600090a3600180546001600160a01b0319166001600160a01b0392909216919091179055565b3390565b60035460408051637a54b69160e11b815290516000926001600160a01b03169163f4a96d22916004808301926020929190829003018186803b158015610f1257600080fd5b505afa158015610f26573d6000803e3d6000fd5b505050506040513d6020811015610f3c57600080fd5b5051905060005b818160ff1610156111795760035460408051635992385960e01b815260ff841660048201529051600092839283926001600160a01b039092169163599238599160248082019260e092909190829003018186803b158015610fa357600080fd5b505afa158015610fb7573d6000803e3d6000fd5b505050506040513d60e0811015610fcd57600080fd5b5080516020820151604090920151909450909250905060006001600160a01b038416610ffb575060006110f4565b811561107f5760408051627eeac760e11b81523060048201526024810185905290516001600160a01b0386169162fdd58e916044808301926020929190829003018186803b15801561104c57600080fd5b505afa158015611060573d6000803e3d6000fd5b505050506040513d602081101561107657600080fd5b505190506110f4565b604080516370a0823160e01b815230600482015290516001600160a01b038616916370a08231916024808301926020929190829003018186803b1580156110c557600080fd5b505afa1580156110d9573d6000803e3d6000fd5b505050506040513d60208110156110ef57600080fd5b505190505b604080516080810182526001600160a01b03958616815260208082019586529315158183019081526060820193845260ff88166000908152600890955291909320925183546001600160a01b03191695169490941782559151600180830191909155925160028201805460ff1916911515919091179055905160039091015501610f43565b5050565b60035460408051637a54b69160e11b815290516000926001600160a01b03169163f4a96d22916004808301926020929190829003018186803b1580156111c257600080fd5b505afa1580156111d6573d6000803e3d6000fd5b505050506040513d60208110156111ec57600080fd5b5051905060005b8181101561117957600081815260086020526040902080546001600160a01b031661121e5750611564565b6002810154600090819060ff16156112bb578254600184015460408051627eeac760e11b81523060048201526024810192909252516001600160a01b039092169162fdd58e91604480820192602092909190829003018186803b15801561128457600080fd5b505afa158015611298573d6000803e3d6000fd5b505050506040513d60208110156112ae57600080fd5b50519150600190506113bf565b8254604080516370a0823160e01b815230600482015290516001600160a01b03909216916370a0823191602480820192602092909190829003018186803b15801561130557600080fd5b505afa158015611319573d6000803e3d6000fd5b505050506040513d602081101561132f57600080fd5b505183546001850154604080516331a9108f60e11b815260048101929092525192945030926001600160a01b0390921691636352211e91602480820192602092909190829003018186803b15801561138657600080fd5b505afa15801561139a573d6000803e3d6000fd5b505050506040513d60208110156113b057600080fd5b50516001600160a01b03161490505b8260030154821180156113cf5750805b15611538578254600980546001600160a01b0319166001600160a01b039092169190911790556001830154600a55600283018054600b805460ff928316151560ff19909116179055905416156114c257825460018085015460408051637921219560e11b8152306004808301919091523360248301526044820193909352606481019390935260a0608484015260a4830191909152630307830360e41b60c4830152516001600160a01b039092169163f242432a9160e48082019260009290919082900301818387803b1580156114a557600080fd5b505af11580156114b9573d6000803e3d6000fd5b50505050611538565b8254600184015460408051632142170760e11b81523060048201523360248201526044810192909252516001600160a01b03909216916342842e0e9160648082019260009290919082900301818387803b15801561151f57600080fd5b505af1158015611533573d6000803e3d6000fd5b505050505b505080546001600160a01b031916815560006001820181905560028201805460ff191690556003909101555b6001016111f356fe4f776e61626c653a206e6577206f776e657220697320746865207a65726f20616464726573735f6e667441646472657373206d757374206e6f7420626520616464726573732830294f776e61626c653a2063616c6c6572206973206e6f7420746865206f776e6572a26469706673582212209b0fc5f5caa803e8d8bd6a909f3c8595d7be06a745e7e98325a82bec81864ade64736f6c634300060c0033",
  "devdoc": {
    "kind": "dev",
    "methods": {
      "onERC721Received(address,address,uint256,bytes)": {
        "details": "See {IERC721Receiver-onERC721Received}. Always returns `IERC721Receiver.onERC721Received.selector`."
      },
      "owner()": {
        "details": "Returns the address of the current owner."
      },
      "renounceOwnership()": {
        "details": "Leaves the contract without owner. It will not be possible to call `onlyOwner` functions anymore. Can only be called by the current owner. NOTE: Renouncing ownership will leave the contract without an owner, thereby removing any functionality that is only available to the owner."
      },
      "supportsInterface(bytes4)": {
        "details": "See {IERC165-supportsInterface}. Time complexity O(1), guaranteed to always use less than 30 000 gas."
      },
      "transferOwnership(address)": {
        "details": "Transfers ownership of the contract to a new account (`newOwner`). Can only be called by the current owner."
      }
    },
    "version": 1
  },
  "userdoc": {
    "kind": "user",
    "methods": {},
    "version": 1
  },
  "storageLayout": {
    "storage": [
      {
        "astId": 5552,
        "contract": "contracts/TrashYourNFT.sol:TrashYourNFT",
        "label": "_status",
        "offset": 0,
        "slot": "0",
        "type": "t_uint256"
      },
      {
        "astId": 416,
        "contract": "contracts/TrashYourNFT.sol:TrashYourNFT",
        "label": "_owner",
        "offset": 0,
        "slot": "1",
        "type": "t_address"
      },
      {
        "astId": 532,
        "contract": "contracts/TrashYourNFT.sol:TrashYourNFT",
        "label": "_supportedInterfaces",
        "offset": 0,
        "slot": "2",
        "type": "t_mapping(t_bytes4,t_bool)"
      },
      {
        "astId": 7479,
        "contract": "contracts/TrashYourNFT.sol:TrashYourNFT",
        "label": "luckbox",
        "offset": 0,
        "slot": "3",
        "type": "t_address"
      },
      {
        "astId": 7481,
        "contract": "contracts/TrashYourNFT.sol:TrashYourNFT",
        "label": "trashId",
        "offset": 0,
        "slot": "4",
        "type": "t_uint256"
      },
      {
        "astId": 7483,
        "contract": "contracts/TrashYourNFT.sol:TrashYourNFT",
        "label": "treasury",
        "offset": 0,
        "slot": "5",
        "type": "t_address"
      },
      {
        "astId": 7514,
        "contract": "contracts/TrashYourNFT.sol:TrashYourNFT",
        "label": "idToResult",
        "offset": 0,
        "slot": "6",
        "type": "t_mapping(t_uint256,t_struct(Result)7494_storage)"
      },
      {
        "astId": 7518,
        "contract": "contracts/TrashYourNFT.sol:TrashYourNFT",
        "label": "nftAllowance",
        "offset": 0,
        "slot": "7",
        "type": "t_mapping(t_address,t_bool)"
      },
      {
        "astId": 7522,
        "contract": "contracts/TrashYourNFT.sol:TrashYourNFT",
        "label": "idToSlotData",
        "offset": 0,
        "slot": "8",
        "type": "t_mapping(t_uint256,t_struct(SlotData)7503_storage)"
      },
      {
        "astId": 7524,
        "contract": "contracts/TrashYourNFT.sol:TrashYourNFT",
        "label": "pendingReward",
        "offset": 0,
        "slot": "9",
        "type": "t_struct(PendingReward)7510_storage"
      }
    ],
    "types": {
      "t_address": {
        "encoding": "inplace",
        "label": "address",
        "numberOfBytes": "20"
      },
      "t_bool": {
        "encoding": "inplace",
        "label": "bool",
        "numberOfBytes": "1"
      },
      "t_bytes4": {
        "encoding": "inplace",
        "label": "bytes4",
        "numberOfBytes": "4"
      },
      "t_mapping(t_address,t_bool)": {
        "encoding": "mapping",
        "key": "t_address",
        "label": "mapping(address => bool)",
        "numberOfBytes": "32",
        "value": "t_bool"
      },
      "t_mapping(t_bytes4,t_bool)": {
        "encoding": "mapping",
        "key": "t_bytes4",
        "label": "mapping(bytes4 => bool)",
        "numberOfBytes": "32",
        "value": "t_bool"
      },
      "t_mapping(t_uint256,t_struct(Result)7494_storage)": {
        "encoding": "mapping",
        "key": "t_uint256",
        "label": "mapping(uint256 => struct TrashYourNFT.Result)",
        "numberOfBytes": "32",
        "value": "t_struct(Result)7494_storage"
      },
      "t_mapping(t_uint256,t_struct(SlotData)7503_storage)": {
        "encoding": "mapping",
        "key": "t_uint256",
        "label": "mapping(uint256 => struct TrashYourNFT.SlotData)",
        "numberOfBytes": "32",
        "value": "t_struct(SlotData)7503_storage"
      },
      "t_struct(PendingReward)7510_storage": {
        "encoding": "inplace",
        "label": "struct TrashYourNFT.PendingReward",
        "members": [
          {
            "astId": 7505,
            "contract": "contracts/TrashYourNFT.sol:TrashYourNFT",
            "label": "nftAddress",
            "offset": 0,
            "slot": "0",
            "type": "t_address"
          },
          {
            "astId": 7507,
            "contract": "contracts/TrashYourNFT.sol:TrashYourNFT",
            "label": "tokenId",
            "offset": 0,
            "slot": "1",
            "type": "t_uint256"
          },
          {
            "astId": 7509,
            "contract": "contracts/TrashYourNFT.sol:TrashYourNFT",
            "label": "is1155",
            "offset": 0,
            "slot": "2",
            "type": "t_bool"
          }
        ],
        "numberOfBytes": "96"
      },
      "t_struct(Result)7494_storage": {
        "encoding": "inplace",
        "label": "struct TrashYourNFT.Result",
        "members": [
          {
            "astId": 7485,
            "contract": "contracts/TrashYourNFT.sol:TrashYourNFT",
            "label": "id",
            "offset": 0,
            "slot": "0",
            "type": "t_uint256"
          },
          {
            "astId": 7487,
            "contract": "contracts/TrashYourNFT.sol:TrashYourNFT",
            "label": "owner",
            "offset": 0,
            "slot": "1",
            "type": "t_address"
          },
          {
            "astId": 7489,
            "contract": "contracts/TrashYourNFT.sol:TrashYourNFT",
            "label": "nftAddress",
            "offset": 0,
            "slot": "2",
            "type": "t_address"
          },
          {
            "astId": 7491,
            "contract": "contracts/TrashYourNFT.sol:TrashYourNFT",
            "label": "tokenId",
            "offset": 0,
            "slot": "3",
            "type": "t_uint256"
          },
          {
            "astId": 7493,
            "contract": "contracts/TrashYourNFT.sol:TrashYourNFT",
            "label": "is1155",
            "offset": 0,
            "slot": "4",
            "type": "t_bool"
          }
        ],
        "numberOfBytes": "160"
      },
      "t_struct(SlotData)7503_storage": {
        "encoding": "inplace",
        "label": "struct TrashYourNFT.SlotData",
        "members": [
          {
            "astId": 7496,
            "contract": "contracts/TrashYourNFT.sol:TrashYourNFT",
            "label": "nftAddress",
            "offset": 0,
            "slot": "0",
            "type": "t_address"
          },
          {
            "astId": 7498,
            "contract": "contracts/TrashYourNFT.sol:TrashYourNFT",
            "label": "tokenId",
            "offset": 0,
            "slot": "1",
            "type": "t_uint256"
          },
          {
            "astId": 7500,
            "contract": "contracts/TrashYourNFT.sol:TrashYourNFT",
            "label": "is1155",
            "offset": 0,
            "slot": "2",
            "type": "t_bool"
          },
          {
            "astId": 7502,
            "contract": "contracts/TrashYourNFT.sol:TrashYourNFT",
            "label": "balance",
            "offset": 0,
            "slot": "3",
            "type": "t_uint256"
          }
        ],
        "numberOfBytes": "128"
      },
      "t_uint256": {
        "encoding": "inplace",
        "label": "uint256",
        "numberOfBytes": "32"
      }
    }
  }
}